{
  "address": "0x3da614fa2Bf9761f75d5ae7fD7ff1733103F2aF7",
  "abi": [
    {
      "inputs": [
        {
          "internalType": "contract IERC20",
          "name": "rewardsToken",
          "type": "address"
        },
        {
          "internalType": "contract IERC20",
          "name": "stakingToken",
          "type": "address"
        },
        {
          "internalType": "uint8",
          "name": "stakingTokenDecimals",
          "type": "uint8"
        },
        {
          "internalType": "uint256",
          "name": "periodStartTime",
          "type": "uint256"
        },
        {
          "internalType": "uint256",
          "name": "periodEndTime",
          "type": "uint256"
        }
      ],
      "stateMutability": "nonpayable",
      "type": "constructor"
    },
    {
      "anonymous": false,
      "inputs": [
        {
          "indexed": false,
          "internalType": "uint256",
          "name": "startTIme",
          "type": "uint256"
        },
        {
          "indexed": false,
          "internalType": "uint256",
          "name": "endTime",
          "type": "uint256"
        }
      ],
      "name": "NewPeriodSet",
      "type": "event"
    },
    {
      "anonymous": false,
      "inputs": [
        {
          "indexed": true,
          "internalType": "address",
          "name": "previousOwner",
          "type": "address"
        },
        {
          "indexed": true,
          "internalType": "address",
          "name": "newOwner",
          "type": "address"
        }
      ],
      "name": "OwnershipTransferred",
      "type": "event"
    },
    {
      "anonymous": false,
      "inputs": [
        {
          "indexed": false,
          "internalType": "address",
          "name": "account",
          "type": "address"
        }
      ],
      "name": "Paused",
      "type": "event"
    },
    {
      "anonymous": false,
      "inputs": [
        {
          "indexed": false,
          "internalType": "contract IERC20",
          "name": "token",
          "type": "address"
        },
        {
          "indexed": true,
          "internalType": "address",
          "name": "to",
          "type": "address"
        },
        {
          "indexed": false,
          "internalType": "uint256",
          "name": "amount",
          "type": "uint256"
        }
      ],
      "name": "Recovered",
      "type": "event"
    },
    {
      "anonymous": false,
      "inputs": [
        {
          "indexed": false,
          "internalType": "uint256",
          "name": "amount",
          "type": "uint256"
        }
      ],
      "name": "RewardAdded",
      "type": "event"
    },
    {
      "anonymous": false,
      "inputs": [
        {
          "indexed": true,
          "internalType": "address",
          "name": "account",
          "type": "address"
        },
        {
          "indexed": false,
          "internalType": "uint256",
          "name": "amount",
          "type": "uint256"
        }
      ],
      "name": "RewardPaid",
      "type": "event"
    },
    {
      "anonymous": false,
      "inputs": [
        {
          "indexed": true,
          "internalType": "address",
          "name": "account",
          "type": "address"
        },
        {
          "indexed": false,
          "internalType": "uint256",
          "name": "amount",
          "type": "uint256"
        }
      ],
      "name": "Staked",
      "type": "event"
    },
    {
      "anonymous": false,
      "inputs": [
        {
          "indexed": false,
          "internalType": "address",
          "name": "account",
          "type": "address"
        }
      ],
      "name": "Unpaused",
      "type": "event"
    },
    {
      "anonymous": false,
      "inputs": [
        {
          "indexed": true,
          "internalType": "address",
          "name": "account",
          "type": "address"
        },
        {
          "indexed": false,
          "internalType": "uint256",
          "name": "amount",
          "type": "uint256"
        }
      ],
      "name": "Withdrawn",
      "type": "event"
    },
    {
      "inputs": [],
      "name": "accruedRewardPerToken",
      "outputs": [
        {
          "internalType": "uint256",
          "name": "",
          "type": "uint256"
        }
      ],
      "stateMutability": "view",
      "type": "function"
    },
    {
      "inputs": [
        {
          "internalType": "uint256",
          "name": "amount",
          "type": "uint256"
        }
      ],
      "name": "addToRewardsAllocation",
      "outputs": [],
      "stateMutability": "nonpayable",
      "type": "function"
    },
    {
      "inputs": [
        {
          "internalType": "address",
          "name": "account",
          "type": "address"
        }
      ],
      "name": "balanceOf",
      "outputs": [
        {
          "internalType": "uint256",
          "name": "",
          "type": "uint256"
        }
      ],
      "stateMutability": "view",
      "type": "function"
    },
    {
      "inputs": [
        {
          "internalType": "address",
          "name": "account",
          "type": "address"
        }
      ],
      "name": "earned",
      "outputs": [
        {
          "internalType": "uint256",
          "name": "",
          "type": "uint256"
        }
      ],
      "stateMutability": "view",
      "type": "function"
    },
    {
      "inputs": [],
      "name": "exit",
      "outputs": [],
      "stateMutability": "nonpayable",
      "type": "function"
    },
    {
      "inputs": [],
      "name": "getReward",
      "outputs": [],
      "stateMutability": "nonpayable",
      "type": "function"
    },
    {
      "inputs": [
        {
          "internalType": "uint256",
          "name": "amount",
          "type": "uint256"
        }
      ],
      "name": "getRewardExact",
      "outputs": [],
      "stateMutability": "nonpayable",
      "type": "function"
    },
    {
      "inputs": [],
      "name": "hasEnded",
      "outputs": [
        {
          "internalType": "bool",
          "name": "",
          "type": "bool"
        }
      ],
      "stateMutability": "view",
      "type": "function"
    },
    {
      "inputs": [],
      "name": "hasStarted",
      "outputs": [
        {
          "internalType": "bool",
          "name": "",
          "type": "bool"
        }
      ],
      "stateMutability": "view",
      "type": "function"
    },
    {
      "inputs": [],
      "name": "lastTimeRewardApplicable",
      "outputs": [
        {
          "internalType": "uint256",
          "name": "",
          "type": "uint256"
        }
      ],
      "stateMutability": "view",
      "type": "function"
    },
    {
      "inputs": [],
      "name": "owner",
      "outputs": [
        {
          "internalType": "address",
          "name": "",
          "type": "address"
        }
      ],
      "stateMutability": "view",
      "type": "function"
    },
    {
      "inputs": [],
      "name": "pause",
      "outputs": [],
      "stateMutability": "nonpayable",
      "type": "function"
    },
    {
      "inputs": [],
      "name": "paused",
      "outputs": [
        {
          "internalType": "bool",
          "name": "",
          "type": "bool"
        }
      ],
      "stateMutability": "view",
      "type": "function"
    },
    {
      "inputs": [],
      "name": "periodDuration",
      "outputs": [
        {
          "internalType": "uint256",
          "name": "",
          "type": "uint256"
        }
      ],
      "stateMutability": "view",
      "type": "function"
    },
    {
      "inputs": [],
      "name": "periodEndTime",
      "outputs": [
        {
          "internalType": "uint256",
          "name": "",
          "type": "uint256"
        }
      ],
      "stateMutability": "view",
      "type": "function"
    },
    {
      "inputs": [],
      "name": "periodStartTime",
      "outputs": [
        {
          "internalType": "uint256",
          "name": "",
          "type": "uint256"
        }
      ],
      "stateMutability": "view",
      "type": "function"
    },
    {
      "inputs": [
        {
          "internalType": "contract IERC20",
          "name": "token",
          "type": "address"
        },
        {
          "internalType": "address",
          "name": "to",
          "type": "address"
        },
        {
          "internalType": "uint256",
          "name": "amount",
          "type": "uint256"
        }
      ],
      "name": "recoverUnsupportedERC20",
      "outputs": [],
      "stateMutability": "nonpayable",
      "type": "function"
    },
    {
      "inputs": [],
      "name": "renounceOwnership",
      "outputs": [],
      "stateMutability": "nonpayable",
      "type": "function"
    },
    {
      "inputs": [],
      "name": "rewardRate",
      "outputs": [
        {
          "internalType": "uint256",
          "name": "",
          "type": "uint256"
        }
      ],
      "stateMutability": "view",
      "type": "function"
    },
    {
      "inputs": [],
      "name": "rewardsToken",
      "outputs": [
        {
          "internalType": "contract IERC20",
          "name": "",
          "type": "address"
        }
      ],
      "stateMutability": "view",
      "type": "function"
    },
    {
      "inputs": [
        {
          "internalType": "uint256",
          "name": "startTime",
          "type": "uint256"
        },
        {
          "internalType": "uint256",
          "name": "endTime",
          "type": "uint256"
        }
      ],
      "name": "setNewPeriod",
      "outputs": [],
      "stateMutability": "nonpayable",
      "type": "function"
    },
    {
      "inputs": [
        {
          "internalType": "uint256",
          "name": "amount",
          "type": "uint256"
        }
      ],
      "name": "stake",
      "outputs": [],
      "stateMutability": "nonpayable",
      "type": "function"
    },
    {
      "inputs": [],
      "name": "stakingToken",
      "outputs": [
        {
          "internalType": "contract IERC20",
          "name": "",
          "type": "address"
        }
      ],
      "stateMutability": "view",
      "type": "function"
    },
    {
      "inputs": [],
      "name": "stakingTokenDecimals",
      "outputs": [
        {
          "internalType": "uint8",
          "name": "",
          "type": "uint8"
        }
      ],
      "stateMutability": "view",
      "type": "function"
    },
    {
      "inputs": [],
      "name": "timeRemainingInPeriod",
      "outputs": [
        {
          "internalType": "uint256",
          "name": "",
          "type": "uint256"
        }
      ],
      "stateMutability": "view",
      "type": "function"
    },
    {
      "inputs": [],
      "name": "totalSupply",
      "outputs": [
        {
          "internalType": "uint256",
          "name": "",
          "type": "uint256"
        }
      ],
      "stateMutability": "view",
      "type": "function"
    },
    {
      "inputs": [
        {
          "internalType": "address",
          "name": "newOwner",
          "type": "address"
        }
      ],
      "name": "transferOwnership",
      "outputs": [],
      "stateMutability": "nonpayable",
      "type": "function"
    },
    {
      "inputs": [],
      "name": "unpause",
      "outputs": [],
      "stateMutability": "nonpayable",
      "type": "function"
    },
    {
      "inputs": [],
      "name": "updateReward",
      "outputs": [],
      "stateMutability": "nonpayable",
      "type": "function"
    },
    {
      "inputs": [
        {
          "internalType": "address",
          "name": "account",
          "type": "address"
        }
      ],
      "name": "updateRewardFor",
      "outputs": [],
      "stateMutability": "nonpayable",
      "type": "function"
    },
    {
      "inputs": [
        {
          "internalType": "uint256",
          "name": "amount",
          "type": "uint256"
        }
      ],
      "name": "withdraw",
      "outputs": [],
      "stateMutability": "nonpayable",
      "type": "function"
    }
  ],
  "transactionHash": "0x654c0dd136f8bf9ec791ffe404116a348ca33912532001e587a828cb58466279",
  "args": [
    "0x0000000000000000000000000000000000000000",
    "0x0000000000000000000000000000000000000000",
    18,
    0,
    10
  ],
  "solcInputHash": "0x4026a07a263f25d91c8a55abb438e805188513fce11c162cf62d0434f5bc7a3b",
  "bytecode": "0x608060405234801561001057600080fd5b50604051611fdf380380611fdf833981810160405260a081101561003357600080fd5b508051602082015160408301516060840151608090940151600160009081559394929391929185908590859061006761017c565b600180546001600160a01b0319166001600160a01b038316908117909155604051919250906000907f8be0079c531659141344cd1fd0a4f28419497f9722a3daafe3b4186f6b6457e0908290a3506001805460ff60a01b19169055604d60ff82161061011a576040805162461bcd60e51b815260206004820152601a60248201527f535220506f6f6c3a20373620646563696d616c73206c696d6974000000000000604482015290519081900360640190fd5b60038054600480546001600160a01b0319166001600160a01b03958616179055610100600160a81b03191661010094909316939093029190911760ff191660ff91909116908117909155600a0a600555600c91909155600b5550610180915050565b3390565b611e508061018f6000396000f3fe608060405234801561001057600080fd5b50600436106101e45760003560e01c806380faa57d1161010f578063b9f7a7b5116100a2578063ecb70fb711610071578063ecb70fb714610412578063f2fde38b1461041a578063f36c0a7214610440578063f469519914610448576101e4565b8063b9f7a7b5146103dc578063bdf7acce146103fa578063d1af0c7d14610402578063e9fad8ee1461040a576101e4565b80638da5cb5b116100de5780638da5cb5b146103a7578063996f0932146103af578063a694fc3a146103b7578063b470aade146103d4576101e4565b806380faa57d1461033b57806381b72684146103435780638456cb591461036957806386a86d4114610371576101e4565b80633f4ba83a11610187578063715018a611610156578063715018a6146102ff57806372f702f314610307578063736d7c231461032b5780637b0a47ee14610333576101e4565b80633f4ba83a146102ad57806344691f7e146102b55780635c975abb146102d157806370a08231146102d9576101e4565b806318160ddd116101c357806318160ddd146102635780631d8df8f91461026b5780632e1a7d4d146102885780633d18b912146102a5576101e4565b80628cc262146101e957806306032dec146102215780630c2d27ac14610240575b600080fd5b61020f600480360360208110156101ff57600080fd5b50356001600160a01b0316610450565b60408051918252519081900360200190f35b61023e6004803603602081101561023757600080fd5b50356104c8565b005b61023e6004803603604081101561025657600080fd5b5080359060200135610524565b61020f6106e3565b61023e6004803603602081101561028157600080fd5b50356106ea565b61023e6004803603602081101561029e57600080fd5b5035610796565b61023e6107ea565b61023e610844565b6102bd6108a6565b604080519115158252519081900360200190f35b6102bd6108af565b61020f600480360360208110156102ef57600080fd5b50356001600160a01b03166108bf565b61023e6108da565b61030f61097c565b604080516001600160a01b039092168252519081900360200190f35b61020f61098b565b61020f6109f7565b61020f6109fd565b61023e6004803603602081101561035957600080fd5b50356001600160a01b0316610a20565b61023e610a74565b61023e6004803603606081101561038757600080fd5b506001600160a01b03813581169160208101359091169060400135610ad4565b61030f610b3c565b61020f610b4b565b61023e600480360360208110156103cd57600080fd5b5035610b51565b61020f610bff565b6103e4610c18565b6040805160ff9092168252519081900360200190f35b61020f610c21565b61030f610c27565b61023e610c3b565b6102bd610c8e565b61023e6004803603602081101561043057600080fd5b50356001600160a01b0316610c97565b61023e610d90565b61020f610deb565b6001600160a01b0381166000908152600260205260408120546104c2906104bc610478610e9c565b6001600160a01b0386166000908152600960205260409020546104b6906104a7906104a1610deb565b90610ea2565b6104b0886108bf565b90610eeb565b90610f44565b90610f86565b92915050565b6002600054141561050e576040805162461bcd60e51b815260206004820152601f6024820152600080516020611c59833981519152604482015290519081900360640190fd5b600260005561051c81610fe0565b506001600055565b61052c6110fa565b6001546001600160a01b0390811691161461057c576040805162461bcd60e51b81526020600482018190526024820152600080516020611db0833981519152604482015290519081900360640190fd5b6105846108a6565b15806105935750610593610c8e565b6105ce5760405162461bcd60e51b815260040180806020018281038252602e815260200180611d61602e913960400191505060405180910390fd5b81811161060c5760405162461bcd60e51b8152600401808060200182810382526021815260200180611dd06021913960400191505060405180910390fd5b42821161064a5760405162461bcd60e51b815260040180806020018281038252603c815260200180611cfe603c913960400191505060405180910390fd5b6106526110fe565b61065a610c8e565b15610669576000600d5561069a565b600061067f610676610bff565b600d5490610eeb565b905061069561068e8385610ea2565b8290610f44565b600d55505b600c829055600b819055604080518381526020810183905281517fa6b56f4ff0798bc2816f31bd924541079dbadafce7eaf7f72fe7127d5d0d8be1929181900390910190a15050565b6007545b90565b60026000541415610730576040805162461bcd60e51b815260206004820152601f6024820152600080516020611c59833981519152604482015290519081900360640190fd5b600260005561073d6110fa565b6001546001600160a01b0390811691161461078d576040805162461bcd60e51b81526020600482018190526024820152600080516020611db0833981519152604482015290519081900360640190fd5b61051c81611116565b600260005414156107dc576040805162461bcd60e51b815260206004820152601f6024820152600080516020611c59833981519152604482015290519081900360640190fd5b600260005561051c816111a6565b60026000541415610830576040805162461bcd60e51b815260206004820152601f6024820152600080516020611c59833981519152604482015290519081900360640190fd5b600260005561083d6112bf565b6001600055565b61084c6110fa565b6001546001600160a01b0390811691161461089c576040805162461bcd60e51b81526020600482018190526024820152600080516020611db0833981519152604482015290519081900360640190fd5b6108a4611391565b565b600c5442101590565b600154600160a01b900460ff1690565b6001600160a01b031660009081526006602052604090205490565b6108e26110fa565b6001546001600160a01b03908116911614610932576040805162461bcd60e51b81526020600482018190526024820152600080516020611db0833981519152604482015290519081900360640190fd5b6001546040516000916001600160a01b0316907f8be0079c531659141344cd1fd0a4f28419497f9722a3daafe3b4186f6b6457e0908390a3600180546001600160a01b0319169055565b6004546001600160a01b031690565b60006109956108a6565b6109d05760405162461bcd60e51b815260040180806020018281038252603c815260200180611c1d603c913960400191505060405180910390fd5b6109d8610c8e565b156109e5575060006106e7565b600b546109f29042610ea2565b905090565b600d5490565b6000610a076108a6565b610a145750600a546106e7565b6109f242600b54611439565b60026000541415610a66576040805162461bcd60e51b815260206004820152601f6024820152600080516020611c59833981519152604482015290519081900360640190fd5b600260005561051c8161144f565b610a7c6110fa565b6001546001600160a01b03908116911614610acc576040805162461bcd60e51b81526020600482018190526024820152600080516020611db0833981519152604482015290519081900360640190fd5b6108a461148e565b610adc6110fa565b6001546001600160a01b03908116911614610b2c576040805162461bcd60e51b81526020600482018190526024820152600080516020611db0833981519152604482015290519081900360640190fd5b610b3783838361151c565b505050565b6001546001600160a01b031690565b600b5490565b60026000541415610b97576040805162461bcd60e51b815260206004820152601f6024820152600080516020611c59833981519152604482015290519081900360640190fd5b6002600055600154600160a01b900460ff1615610bee576040805162461bcd60e51b815260206004820152601060248201526f14185d5cd8589b194e881c185d5cd95960821b604482015290519081900360640190fd5b61051c610bf96110fa565b8261161a565b60006109f2600c54600b54610ea290919063ffffffff16565b60035460ff1690565b600c5490565b60035461010090046001600160a01b031690565b60026000541415610c81576040805162461bcd60e51b815260206004820152601f6024820152600080516020611c59833981519152604482015290519081900360640190fd5b600260005561083d611760565b600b5442101590565b610c9f6110fa565b6001546001600160a01b03908116911614610cef576040805162461bcd60e51b81526020600482018190526024820152600080516020611db0833981519152604482015290519081900360640190fd5b6001600160a01b038116610d345760405162461bcd60e51b8152600401808060200182810382526026815260200180611c796026913960400191505060405180910390fd5b6001546040516001600160a01b038084169216907f8be0079c531659141344cd1fd0a4f28419497f9722a3daafe3b4186f6b6457e090600090a3600180546001600160a01b0319166001600160a01b0392909216919091179055565b60026000541415610dd6576040805162461bcd60e51b815260206004820152601f6024820152600080516020611c59833981519152604482015290519081900360640190fd5b600260005561083d610de66110fa565b61144f565b600080610df66106e3565b905080610e075750506008546106e7565b600a546000610e146109fd565b905081600c541115610e3d5780600c541115610e375760085493505050506106e7565b600c5491505b6000610e498284610ea2565b905080610e5e576008549450505050506106e7565b600d54600090610e6e9083610eeb565b9050610e92610e89866104b6610e82610e9c565b8590610eeb565b60085490610f86565b9550505050505090565b60055490565b6000610ee483836040518060400160405280601e81526020017f536166654d6174683a207375627472616374696f6e206f766572666c6f77000081525061179d565b9392505050565b600082610efa575060006104c2565b82820282848281610f0757fe5b0414610ee45760405162461bcd60e51b8152600401808060200182810382526021815260200180611d8f6021913960400191505060405180910390fd5b6000610ee483836040518060400160405280601a81526020017f536166654d6174683a206469766973696f6e206279207a65726f000000000000815250611834565b600082820183811015610ee4576040805162461bcd60e51b815260206004820152601b60248201527f536166654d6174683a206164646974696f6e206f766572666c6f770000000000604482015290519081900360640190fd5b610feb610de66110fa565b600060026000610ff96110fa565b6001600160a01b03166001600160a01b031681526020019081526020016000205490508082111561105b5760405162461bcd60e51b815260040180806020018281038252602f815260200180611bee602f913960400191505060405180910390fd5b6110658183610ea2565b600260006110716110fa565b6001600160a01b031681526020810191909152604001600020556110ae6110966110fa565b60035461010090046001600160a01b03169084611899565b6110b66110fa565b6001600160a01b03167fe2403640ba68fed3a2f88b7557551d1993f84b99bb10ff833f0cf8db0c5e0486836040518082815260200191505060405180910390a25050565b3390565b611106610deb565b6008556111116109fd565b600a55565b61111e6110fe565b60006111286108a6565b15806111375750611137610c8e565b1561114b57611144610bff565b9050611156565b61115361098b565b90505b61116c6111638383610f44565b600d5490610f86565b600d556040805183815290517fde88a922e0d3b88b24e9623efeb464919c6bf9f66857a65e2bfcf2ce87a9433d9181900360200190a15050565b600081116111e55760405162461bcd60e51b8152600401808060200182810382526027815260200180611d3a6027913960400191505060405180910390fd5b6111f0610de66110fa565b6007546111fd9082610ea2565b60075561123081600660006112106110fa565b6001600160a01b0316815260208101919091526040016000205490610ea2565b6006600061123c6110fa565b6001600160a01b031681526020810191909152604001600020556112746112616110fa565b6004546001600160a01b03169083611899565b61127c6110fa565b6001600160a01b03167f7084f5476618d8e60b11ef0d7d3f06914655adb8793e28ff7f018d4c76d505d5826040518082815260200191505060405180910390a250565b6112ca610de66110fa565b6000600260006112d86110fa565b6001600160a01b031681526020810191909152604001600020549050801561138e576000600260006113086110fa565b6001600160a01b0316815260208101919091526040016000205561134561132d6110fa565b60035461010090046001600160a01b03169083611899565b61134d6110fa565b6001600160a01b03167fe2403640ba68fed3a2f88b7557551d1993f84b99bb10ff833f0cf8db0c5e0486826040518082815260200191505060405180910390a25b50565b600154600160a01b900460ff166113e6576040805162461bcd60e51b815260206004820152601460248201527314185d5cd8589b194e881b9bdd081c185d5cd95960621b604482015290519081900360640190fd5b6001805460ff60a01b191690557f5db9ee0a495bf2e6ff9c91a7834c1ba4fdd244a5e8aa4e537bd38aeae4b073aa61141c6110fa565b604080516001600160a01b039092168252519081900360200190a1565b60008183106114485781610ee4565b5090919050565b6114576110fe565b61146081610450565b6001600160a01b03909116600090815260026020908152604080832093909355600854600990915291902055565b600154600160a01b900460ff16156114e0576040805162461bcd60e51b815260206004820152601060248201526f14185d5cd8589b194e881c185d5cd95960821b604482015290519081900360640190fd5b6001805460ff60a01b1916600160a01b1790557f62e78cea01bee320cd4e420270b5ea74000d11b0c9f74754ebdbfc544b05a25861141c6110fa565b6004546001600160a01b03848116911614156115695760405162461bcd60e51b8152600401808060200182810382526034815260200180611bba6034913960400191505060405180910390fd5b6003546001600160a01b038481166101009092041614156115bb5760405162461bcd60e51b8152600401808060200182810382526034815260200180611c9f6034913960400191505060405180910390fd5b6115cf6001600160a01b0384168383611899565b604080516001600160a01b038581168252602082018490528251908516927ffff3b3844276f57024e0b42afec1a37f75db36511e43819a4f2a63ab7862b648928290030190a2505050565b6001600160a01b03821661165f5760405162461bcd60e51b815260040180806020018281038252602b815260200180611cd3602b913960400191505060405180910390fd5b600081116116b4576040805162461bcd60e51b815260206004820152601a60248201527f535220506f6f6c3a2063616e6e6f74207374616b65207a65726f000000000000604482015290519081900360640190fd5b6116bd8261144f565b6007546116ca9082610f86565b6007556001600160a01b0382166000908152600660205260409020546116f09082610f86565b6001600160a01b0380841660009081526006602052604090209190915560045461171d91168330846118eb565b6040805182815290516001600160a01b038416917f9e71bc8eea02a63969f509818f2dafb9254532904319f9dbda79b67bd34a5f3d919081900360200190a25050565b6117956006600061176f6110fa565b6001600160a01b03166001600160a01b03168152602001908152602001600020546111a6565b6108a46112bf565b6000818484111561182c5760405162461bcd60e51b81526004018080602001828103825283818151815260200191508051906020019080838360005b838110156117f15781810151838201526020016117d9565b50505050905090810190601f16801561181e5780820380516001836020036101000a031916815260200191505b509250505060405180910390fd5b505050900390565b600081836118835760405162461bcd60e51b81526020600482018181528351602484015283519092839260449091019190850190808383600083156117f15781810151838201526020016117d9565b50600083858161188f57fe5b0495945050505050565b604080516001600160a01b038416602482015260448082018490528251808303909101815260649091019091526020810180516001600160e01b031663a9059cbb60e01b179052610b3790849061194b565b604080516001600160a01b0380861660248301528416604482015260648082018490528251808303909101815260849091019091526020810180516001600160e01b03166323b872dd60e01b17905261194590859061194b565b50505050565b60606119a0826040518060400160405280602081526020017f5361666545524332303a206c6f772d6c6576656c2063616c6c206661696c6564815250856001600160a01b03166119fc9092919063ffffffff16565b805190915015610b37578080602001905160208110156119bf57600080fd5b5051610b375760405162461bcd60e51b815260040180806020018281038252602a815260200180611df1602a913960400191505060405180910390fd5b6060611a0b8484600085611a13565b949350505050565b6060611a1e85611b80565b611a6f576040805162461bcd60e51b815260206004820152601d60248201527f416464726573733a2063616c6c20746f206e6f6e2d636f6e7472616374000000604482015290519081900360640190fd5b60006060866001600160a01b031685876040518082805190602001908083835b60208310611aae5780518252601f199092019160209182019101611a8f565b6001836020036101000a03801982511681845116808217855250505050505090500191505060006040518083038185875af1925050503d8060008114611b10576040519150601f19603f3d011682016040523d82523d6000602084013e611b15565b606091505b50915091508115611b29579150611a0b9050565b805115611b395780518082602001fd5b60405162461bcd60e51b81526020600482018181528651602484015286518793919283926044019190850190808383600083156117f15781810151838201526020016117d9565b6000813f7fc5d2460186f7233c927e7db2dcc703c0e500b653ca82273b7bfad8045d85a470818114801590611a0b57505015159291505056fe5374616b656452657761726473506f6f6c3a2063616e6e6f7420776974686472617720746865207374616b696e6720746f6b656e535220506f6f6c3a2063616e6e6f742072656465656d206d6f72652072657761726473207468616e206561726e656453525054523a2063757272656e74207265776172647320646973747269627574696f6e20706572696f6420686173206e6f742079657420626567756e5265656e7472616e637947756172643a207265656e7472616e742063616c6c004f776e61626c653a206e6577206f776e657220697320746865207a65726f20616464726573735374616b656452657761726473506f6f6c3a2063616e6e6f7420776974686472617720746865207265776172647320746f6b656e535220506f6f6c3a2063616e6e6f74207374616b652066726f6d20746865207a65726f206164647265737353525054523a20737461727454696d65206d7573742062652067726561746572207468616e207468652063757272656e7420626c6f636b2074696d655374616b656452657761726473506f6f6c3a2063616e6e6f74207769746864726177207a65726f53525054523a2063616e6e6f74206368616e676520616e206f6e676f696e67207374616b696e6720706572696f64536166654d6174683a206d756c7469706c69636174696f6e206f766572666c6f774f776e61626c653a2063616c6c6572206973206e6f7420746865206f776e657253525054523a20656e6473206265666f7265207468652066756e20626567696e735361666545524332303a204552433230206f7065726174696f6e20646964206e6f742073756363656564a2646970667358221220dc98c1195cd2f0a3069a2b5367877d6ded817b8b234781ddd536573f4406823264736f6c63430007030033",
  "devdoc": {
    "kind": "dev",
    "methods": {
      "owner()": {
        "details": "Returns the address of the current owner."
      },
      "paused()": {
        "details": "Returns true if the contract is paused, and false otherwise."
      },
      "renounceOwnership()": {
        "details": "Leaves the contract without owner. It will not be possible to call `onlyOwner` functions anymore. Can only be called by the current owner. NOTE: Renouncing ownership will leave the contract without an owner, thereby removing any functionality that is only available to the owner."
      },
      "transferOwnership(address)": {
        "details": "Transfers ownership of the contract to a new account (`newOwner`). Can only be called by the current owner."
      }
    },
    "version": 1
  },
  "userdoc": {
    "kind": "user",
    "methods": {},
    "version": 1
  },
  "storageLayout": {
    "storage": [
      {
        "astId": 1503,
        "contract": "contracts/StakedRewardsPoolTimedRate.sol:StakedRewardsPoolTimedRate",
        "label": "_status",
        "offset": 0,
        "slot": "0",
        "type": "t_uint256"
      },
      {
        "astId": 30,
        "contract": "contracts/StakedRewardsPoolTimedRate.sol:StakedRewardsPoolTimedRate",
        "label": "_owner",
        "offset": 0,
        "slot": "1",
        "type": "t_address"
      },
      {
        "astId": 1420,
        "contract": "contracts/StakedRewardsPoolTimedRate.sol:StakedRewardsPoolTimedRate",
        "label": "_paused",
        "offset": 20,
        "slot": "1",
        "type": "t_bool"
      },
      {
        "astId": 1562,
        "contract": "contracts/StakedRewardsPoolTimedRate.sol:StakedRewardsPoolTimedRate",
        "label": "_rewards",
        "offset": 0,
        "slot": "2",
        "type": "t_mapping(t_address,t_uint256)"
      },
      {
        "astId": 1564,
        "contract": "contracts/StakedRewardsPoolTimedRate.sol:StakedRewardsPoolTimedRate",
        "label": "_stakingTokenDecimals",
        "offset": 0,
        "slot": "3",
        "type": "t_uint8"
      },
      {
        "astId": 1566,
        "contract": "contracts/StakedRewardsPoolTimedRate.sol:StakedRewardsPoolTimedRate",
        "label": "_rewardsToken",
        "offset": 1,
        "slot": "3",
        "type": "t_contract(IERC20)985"
      },
      {
        "astId": 1568,
        "contract": "contracts/StakedRewardsPoolTimedRate.sol:StakedRewardsPoolTimedRate",
        "label": "_stakingToken",
        "offset": 0,
        "slot": "4",
        "type": "t_contract(IERC20)985"
      },
      {
        "astId": 1570,
        "contract": "contracts/StakedRewardsPoolTimedRate.sol:StakedRewardsPoolTimedRate",
        "label": "_stakingTokenBase",
        "offset": 0,
        "slot": "5",
        "type": "t_uint256"
      },
      {
        "astId": 1574,
        "contract": "contracts/StakedRewardsPoolTimedRate.sol:StakedRewardsPoolTimedRate",
        "label": "_balances",
        "offset": 0,
        "slot": "6",
        "type": "t_mapping(t_address,t_uint256)"
      },
      {
        "astId": 1576,
        "contract": "contracts/StakedRewardsPoolTimedRate.sol:StakedRewardsPoolTimedRate",
        "label": "_totalSupply",
        "offset": 0,
        "slot": "7",
        "type": "t_uint256"
      },
      {
        "astId": 2083,
        "contract": "contracts/StakedRewardsPoolTimedRate.sol:StakedRewardsPoolTimedRate",
        "label": "_accruedRewardPerToken",
        "offset": 0,
        "slot": "8",
        "type": "t_uint256"
      },
      {
        "astId": 2087,
        "contract": "contracts/StakedRewardsPoolTimedRate.sol:StakedRewardsPoolTimedRate",
        "label": "_accruedRewardPerTokenPaid",
        "offset": 0,
        "slot": "9",
        "type": "t_mapping(t_address,t_uint256)"
      },
      {
        "astId": 2089,
        "contract": "contracts/StakedRewardsPoolTimedRate.sol:StakedRewardsPoolTimedRate",
        "label": "_lastUpdateTime",
        "offset": 0,
        "slot": "10",
        "type": "t_uint256"
      },
      {
        "astId": 2091,
        "contract": "contracts/StakedRewardsPoolTimedRate.sol:StakedRewardsPoolTimedRate",
        "label": "_periodEndTime",
        "offset": 0,
        "slot": "11",
        "type": "t_uint256"
      },
      {
        "astId": 2093,
        "contract": "contracts/StakedRewardsPoolTimedRate.sol:StakedRewardsPoolTimedRate",
        "label": "_periodStartTime",
        "offset": 0,
        "slot": "12",
        "type": "t_uint256"
      },
      {
        "astId": 2095,
        "contract": "contracts/StakedRewardsPoolTimedRate.sol:StakedRewardsPoolTimedRate",
        "label": "_rewardRate",
        "offset": 0,
        "slot": "13",
        "type": "t_uint256"
      }
    ],
    "types": {
      "t_address": {
        "encoding": "inplace",
        "label": "address",
        "numberOfBytes": "20"
      },
      "t_bool": {
        "encoding": "inplace",
        "label": "bool",
        "numberOfBytes": "1"
      },
      "t_contract(IERC20)985": {
        "encoding": "inplace",
        "label": "contract IERC20",
        "numberOfBytes": "20"
      },
      "t_mapping(t_address,t_uint256)": {
        "encoding": "mapping",
        "key": "t_address",
        "label": "mapping(address => uint256)",
        "numberOfBytes": "32",
        "value": "t_uint256"
      },
      "t_uint256": {
        "encoding": "inplace",
        "label": "uint256",
        "numberOfBytes": "32"
      },
      "t_uint8": {
        "encoding": "inplace",
        "label": "uint8",
        "numberOfBytes": "1"
      }
    }
  },
  "gasEstimates": {
    "creation": {
      "codeDepositCost": "1552000",
      "executionCost": "infinite",
      "totalCost": "infinite"
    },
    "external": {
      "accruedRewardPerToken()": "infinite",
      "addToRewardsAllocation(uint256)": "infinite",
      "balanceOf(address)": "1254",
      "earned(address)": "infinite",
      "exit()": "infinite",
      "getReward()": "infinite",
      "getRewardExact(uint256)": "infinite",
      "hasEnded()": "1056",
      "hasStarted()": "1080",
      "lastTimeRewardApplicable()": "1982",
      "owner()": "1082",
      "pause()": "infinite",
      "paused()": "1117",
      "periodDuration()": "infinite",
      "periodEndTime()": "1065",
      "periodStartTime()": "1065",
      "recoverUnsupportedERC20(address,address,uint256)": "infinite",
      "renounceOwnership()": "infinite",
      "rewardRate()": "1109",
      "rewardsToken()": "1137",
      "setNewPeriod(uint256,uint256)": "infinite",
      "stake(uint256)": "infinite",
      "stakingToken()": "1104",
      "stakingTokenDecimals()": "1058",
      "timeRemainingInPeriod()": "infinite",
      "totalSupply()": "1045",
      "transferOwnership(address)": "infinite",
      "unpause()": "infinite",
      "updateReward()": "infinite",
      "updateRewardFor(address)": "infinite",
      "withdraw(uint256)": "infinite"
    },
    "internal": {
      "_addToRewardsAllocation(uint256)": "infinite",
      "_updateAccrual()": "infinite",
      "_updateRewardFor(address)": "infinite"
    }
  }
}